{
  "_format": "hh-sol-artifact-1",
  "contractName": "VoiceIt",
  "sourceName": "contracts/VoiceIt.sol",
  "abi": [
    {
      "inputs": [],
      "name": "getReportCount",
      "outputs": [
        {
          "internalType": "uint256",
          "name": "",
          "type": "uint256"
        }
      ],
      "stateMutability": "view",
      "type": "function"
    },
    {
      "inputs": [],
      "name": "getReports",
      "outputs": [
        {
          "components": [
            {
              "internalType": "address",
              "name": "sender",
              "type": "address"
            },
            {
              "internalType": "string",
              "name": "content",
              "type": "string"
            },
            {
              "internalType": "uint256",
              "name": "timestamp",
              "type": "uint256"
            }
          ],
          "internalType": "struct VoiceIt.Report[]",
          "name": "",
          "type": "tuple[]"
        }
      ],
      "stateMutability": "view",
      "type": "function"
    },
    {
      "inputs": [
        {
          "internalType": "uint256",
          "name": "",
          "type": "uint256"
        }
      ],
      "name": "reports",
      "outputs": [
        {
          "internalType": "address",
          "name": "sender",
          "type": "address"
        },
        {
          "internalType": "string",
          "name": "content",
          "type": "string"
        },
        {
          "internalType": "uint256",
          "name": "timestamp",
          "type": "uint256"
        }
      ],
      "stateMutability": "view",
      "type": "function"
    },
    {
      "inputs": [
        {
          "internalType": "string",
          "name": "_content",
          "type": "string"
        }
      ],
      "name": "submitReport",
      "outputs": [],
      "stateMutability": "nonpayable",
      "type": "function"
    }
  ],
  "bytecode": "0x608060405234801561001057600080fd5b50610bc0806100206000396000f3fe608060405234801561001057600080fd5b506004361061004c5760003560e01c8063635ac1ed14610051578063a3c86daf1461006d578063c942adf71461008b578063cad9642b146100bd575b600080fd5b61006b6004803603810190610066919061053c565b6100db565b005b6100756101a3565b6040516100829190610770565b60405180910390f35b6100a560048036038101906100a091906107be565b6102f4565b6040516100b493929190610853565b60405180910390f35b6100c56103d6565b6040516100d29190610891565b60405180910390f35b600060405180606001604052803373ffffffffffffffffffffffffffffffffffffffff16815260200183815260200142815250908060018154018082558091505060019003906000526020600020906003020160009091909190915060008201518160000160006101000a81548173ffffffffffffffffffffffffffffffffffffffff021916908373ffffffffffffffffffffffffffffffffffffffff16021790555060208201518160010190816101939190610ab8565b5060408201518160020155505050565b60606000805480602002602001604051908101604052809291908181526020016000905b828210156102eb57838290600052602060002090600302016040518060600160405290816000820160009054906101000a900473ffffffffffffffffffffffffffffffffffffffff1673ffffffffffffffffffffffffffffffffffffffff1673ffffffffffffffffffffffffffffffffffffffff168152602001600182018054610250906108db565b80601f016020809104026020016040519081016040528092919081815260200182805461027c906108db565b80156102c95780601f1061029e576101008083540402835291602001916102c9565b820191906000526020600020905b8154815290600101906020018083116102ac57829003601f168201915b50505050508152602001600282015481525050815260200190600101906101c7565b50505050905090565b6000818154811061030457600080fd5b90600052602060002090600302016000915090508060000160009054906101000a900473ffffffffffffffffffffffffffffffffffffffff169080600101805461034d906108db565b80601f0160208091040260200160405190810160405280929190818152602001828054610379906108db565b80156103c65780601f1061039b576101008083540402835291602001916103c6565b820191906000526020600020905b8154815290600101906020018083116103a957829003601f168201915b5050505050908060020154905083565b60008080549050905090565b6000604051905090565b600080fd5b600080fd5b600080fd5b600080fd5b6000601f19601f8301169050919050565b7f4e487b7100000000000000000000000000000000000000000000000000000000600052604160045260246000fd5b61044982610400565b810181811067ffffffffffffffff8211171561046857610467610411565b5b80604052505050565b600061047b6103e2565b90506104878282610440565b919050565b600067ffffffffffffffff8211156104a7576104a6610411565b5b6104b082610400565b9050602081019050919050565b82818337600083830152505050565b60006104df6104da8461048c565b610471565b9050828152602081018484840111156104fb576104fa6103fb565b5b6105068482856104bd565b509392505050565b600082601f830112610523576105226103f6565b5b81356105338482602086016104cc565b91505092915050565b600060208284031215610552576105516103ec565b5b600082013567ffffffffffffffff8111156105705761056f6103f1565b5b61057c8482850161050e565b91505092915050565b600081519050919050565b600082825260208201905092915050565b6000819050602082019050919050565b600073ffffffffffffffffffffffffffffffffffffffff82169050919050565b60006105dc826105b1565b9050919050565b6105ec816105d1565b82525050565b600081519050919050565b600082825260208201905092915050565b60005b8381101561062c578082015181840152602081019050610611565b60008484015250505050565b6000610643826105f2565b61064d81856105fd565b935061065d81856020860161060e565b61066681610400565b840191505092915050565b6000819050919050565b61068481610671565b82525050565b60006060830160008301516106a260008601826105e3565b50602083015184820360208601526106ba8282610638565b91505060408301516106cf604086018261067b565b508091505092915050565b60006106e6838361068a565b905092915050565b6000602082019050919050565b600061070682610585565b6107108185610590565b935083602082028501610722856105a1565b8060005b8581101561075e578484038952815161073f85826106da565b945061074a836106ee565b925060208a01995050600181019050610726565b50829750879550505050505092915050565b6000602082019050818103600083015261078a81846106fb565b905092915050565b61079b81610671565b81146107a657600080fd5b50565b6000813590506107b881610792565b92915050565b6000602082840312156107d4576107d36103ec565b5b60006107e2848285016107a9565b91505092915050565b6107f4816105d1565b82525050565b600082825260208201905092915050565b6000610816826105f2565b61082081856107fa565b935061083081856020860161060e565b61083981610400565b840191505092915050565b61084d81610671565b82525050565b600060608201905061086860008301866107eb565b818103602083015261087a818561080b565b90506108896040830184610844565b949350505050565b60006020820190506108a66000830184610844565b92915050565b7f4e487b7100000000000000000000000000000000000000000000000000000000600052602260045260246000fd5b600060028204905060018216806108f357607f821691505b602082108103610906576109056108ac565b5b50919050565b60008190508160005260206000209050919050565b60006020601f8301049050919050565b600082821b905092915050565b60006008830261096e7fffffffffffffffffffffffffffffffffffffffffffffffffffffffffffffffff82610931565b6109788683610931565b95508019841693508086168417925050509392505050565b6000819050919050565b60006109b56109b06109ab84610671565b610990565b610671565b9050919050565b6000819050919050565b6109cf8361099a565b6109e36109db826109bc565b84845461093e565b825550505050565b600090565b6109f86109eb565b610a038184846109c6565b505050565b5b81811015610a2757610a1c6000826109f0565b600181019050610a09565b5050565b601f821115610a6c57610a3d8161090c565b610a4684610921565b81016020851015610a55578190505b610a69610a6185610921565b830182610a08565b50505b505050565b600082821c905092915050565b6000610a8f60001984600802610a71565b1980831691505092915050565b6000610aa88383610a7e565b9150826002028217905092915050565b610ac1826105f2565b67ffffffffffffffff811115610ada57610ad9610411565b5b610ae482546108db565b610aef828285610a2b565b600060209050601f831160018114610b225760008415610b10578287015190505b610b1a8582610a9c565b865550610b82565b601f198416610b308661090c565b60005b82811015610b5857848901518255600182019150602085019450602081019050610b33565b86831015610b755784890151610b71601f891682610a7e565b8355505b6001600288020188555050505b50505050505056fea264697066735822122032e34804580a0669c24604cc9f1c86eadd3253f3ec713da68fbd94e54b0dd06b64736f6c63430008130033",
  "linkReferences": {},
  "deployedLinkReferences": {}
}