{
  "_format": "hh-sol-artifact-1",
  "contractName": "VoiceIt",
  "sourceName": "contracts/VoiceIt.sol",
  "abi": [
    {
      "inputs": [
        {
          "internalType": "uint256",
          "name": "",
          "type": "uint256"
        }
      ],
      "name": "reports",
      "outputs": [
        {
          "internalType": "address",
          "name": "sender",
          "type": "address"
        },
        {
          "internalType": "string",
          "name": "content",
          "type": "string"
        },
        {
          "internalType": "uint256",
          "name": "timestamp",
          "type": "uint256"
        }
      ],
      "stateMutability": "view",
      "type": "function"
    },
    {
      "inputs": [
        {
          "internalType": "string",
          "name": "_content",
          "type": "string"
        }
      ],
      "name": "submitReport",
      "outputs": [],
      "stateMutability": "nonpayable",
      "type": "function"
    }
  ],
  "bytecode": "0x608060405234801561001057600080fd5b5061085a806100206000396000f3fe608060405234801561001057600080fd5b50600436106100365760003560e01c8063635ac1ed1461003b578063c942adf714610057575b600080fd5b6100556004803603810190610050919061038d565b610089565b005b610071600480360381019061006c919061040c565b610151565b60405161008093929190610508565b60405180910390f35b600060405180606001604052803373ffffffffffffffffffffffffffffffffffffffff16815260200183815260200142815250908060018154018082558091505060019003906000526020600020906003020160009091909190915060008201518160000160006101000a81548173ffffffffffffffffffffffffffffffffffffffff021916908373ffffffffffffffffffffffffffffffffffffffff16021790555060208201518160010190816101419190610752565b5060408201518160020155505050565b6000818154811061016157600080fd5b90600052602060002090600302016000915090508060000160009054906101000a900473ffffffffffffffffffffffffffffffffffffffff16908060010180546101aa90610575565b80601f01602080910402602001604051908101604052809291908181526020018280546101d690610575565b80156102235780601f106101f857610100808354040283529160200191610223565b820191906000526020600020905b81548152906001019060200180831161020657829003601f168201915b5050505050908060020154905083565b6000604051905090565b600080fd5b600080fd5b600080fd5b600080fd5b6000601f19601f8301169050919050565b7f4e487b7100000000000000000000000000000000000000000000000000000000600052604160045260246000fd5b61029a82610251565b810181811067ffffffffffffffff821117156102b9576102b8610262565b5b80604052505050565b60006102cc610233565b90506102d88282610291565b919050565b600067ffffffffffffffff8211156102f8576102f7610262565b5b61030182610251565b9050602081019050919050565b82818337600083830152505050565b600061033061032b846102dd565b6102c2565b90508281526020810184848401111561034c5761034b61024c565b5b61035784828561030e565b509392505050565b600082601f83011261037457610373610247565b5b813561038484826020860161031d565b91505092915050565b6000602082840312156103a3576103a261023d565b5b600082013567ffffffffffffffff8111156103c1576103c0610242565b5b6103cd8482850161035f565b91505092915050565b6000819050919050565b6103e9816103d6565b81146103f457600080fd5b50565b600081359050610406816103e0565b92915050565b6000602082840312156104225761042161023d565b5b6000610430848285016103f7565b91505092915050565b600073ffffffffffffffffffffffffffffffffffffffff82169050919050565b600061046482610439565b9050919050565b61047481610459565b82525050565b600081519050919050565b600082825260208201905092915050565b60005b838110156104b4578082015181840152602081019050610499565b60008484015250505050565b60006104cb8261047a565b6104d58185610485565b93506104e5818560208601610496565b6104ee81610251565b840191505092915050565b610502816103d6565b82525050565b600060608201905061051d600083018661046b565b818103602083015261052f81856104c0565b905061053e60408301846104f9565b949350505050565b7f4e487b7100000000000000000000000000000000000000000000000000000000600052602260045260246000fd5b6000600282049050600182168061058d57607f821691505b6020821081036105a05761059f610546565b5b50919050565b60008190508160005260206000209050919050565b60006020601f8301049050919050565b600082821b905092915050565b6000600883026106087fffffffffffffffffffffffffffffffffffffffffffffffffffffffffffffffff826105cb565b61061286836105cb565b95508019841693508086168417925050509392505050565b6000819050919050565b600061064f61064a610645846103d6565b61062a565b6103d6565b9050919050565b6000819050919050565b61066983610634565b61067d61067582610656565b8484546105d8565b825550505050565b600090565b610692610685565b61069d818484610660565b505050565b5b818110156106c1576106b660008261068a565b6001810190506106a3565b5050565b601f821115610706576106d7816105a6565b6106e0846105bb565b810160208510156106ef578190505b6107036106fb856105bb565b8301826106a2565b50505b505050565b600082821c905092915050565b60006107296000198460080261070b565b1980831691505092915050565b60006107428383610718565b9150826002028217905092915050565b61075b8261047a565b67ffffffffffffffff81111561077457610773610262565b5b61077e8254610575565b6107898282856106c5565b600060209050601f8311600181146107bc57600084156107aa578287015190505b6107b48582610736565b86555061081c565b601f1984166107ca866105a6565b60005b828110156107f2578489015182556001820191506020850194506020810190506107cd565b8683101561080f578489015161080b601f891682610718565b8355505b6001600288020188555050505b50505050505056fea2646970667358221220c6631495ff6af17bcebf2278be69da98cfb171732989ea702f060695483046b664736f6c63430008130033",
  "linkReferences": {},
  "deployedLinkReferences": {}
}